:020000040800F2
:10000000A8580020DD010008E1010008E301000814
:10001000E5010008E7010008E90100080000000010
:100020000000000000000000000000004501000882
:10003000ED01000800000000890100086D060008BD
:10004000F3010008F3010008F3010008F3010008C0
:10005000F3010008F3010008F3010008F3010008B0
:10006000F3010008F3010008F3010008F3010008A0
:10007000F3010008F3010008F3010008F301000890
:10008000F3010008F3010008F3010008F301000880
:10009000F3010008F3010008F3010008F301000870
:1000A000F3010008F3010008F3010008F301000860
:1000B000F3010008F3010008F3010008F301000850
:1000C000F3010008F3010008F3010008F301000840
:1000D000F30100087D060008F3010008F3010008A1
:1000E000F3010008F3010008F3010008F301000820
:1000F000F3010008F3010008F3010008F301000810
:10010000F3010008F3010008F3010008F3010008FF
:10011000F3010008F3010008F3010008F3010008EF
:10012000F3010008F3010008F3010008F3010008DF
:10013000DFF80CD000F0B2F900480047390A000897
:10014000A8580020224B19680868B0E8F00F80F327
:100150000988BFF36F8F4FF0000080F311884EF0D5
:100160000D0E70470000000006480068006880F32C
:10017000088862B661B6BFF34F8FBFF36F8F00DFA1
:1001800000BF00BF08ED00E0EFF30980BFF36F8F01
:100190000F4B1A6820E9F00F106008B54FF05000BF
:1001A00080F31188BFF34F8FBFF36F8F01F080FF93
:1001B0004FF0000080F31188BDE808401968086816
:1001C000B0E8F00F80F30988BFF36F8F704700BF6E
:1001D0001C000020EFF30580704700000548004731
:1001E000FEE7FEE7FEE7FEE7FEE7FEE7FEE7FEE7E7
:1001F000FEE7FEE73101000840EA01039B0703D058
:1002000009E008C9121F08C0042AFAD203E011F855
:10021000013B00F8013B521EF9D27047D2B201E017
:1002200000F8012B491EFBD270470022F6E710B5FB
:1002300013460A4604461946FFF7F0FF204610BD54
:10024000F0B480EA0102D40F4200B2EB410F02D2B7
:100250000246084611464A0042D0C30DDDB2C1F342
:10026000C752AD1A202D35DAC1F3160141F4000250
:1002700004B15242C5F1200602FA06F12A411044A7
:10028000B3EBD05F23D0C4B1012DA0EBC35009DC88
:10029000F0BC4FF0004202EAC352DBB200F50000AE
:1002A00000F0CEB8400000F1807000EBC350A0F128
:1002B000807040EAD170490009E0490841EAC07104
:1002C000A0EBC35000F50000400800EBC350F0BCA9
:1002D00000F0ADB86142012202EB4101001BF6E7DC
:1002E000F0BC704781F00041AAE780F00040A7E72A
:1002F00080EA010210B502F00043400022D04A001B
:100300001FD0010E01EB1261C0F35600C2F356027A
:1003100040F4000042F40002A0FB022000047F39F8
:10032000140400D0401C50EA124001D44000491E81
:10033000C2B20C0604EBD010401C4008802A02D048
:1003400003E0002010BD20F00100002900DA0020A9
:10035000184310BD30B480EA010202F0004530F0CD
:10036000004221F0004013D090B1C30DD40DC2F370
:100370001601C0F31600E41A41F4000140F4000233
:100380007D34914201D3641C00E04900002C02DA64
:1003900030BC002070474FF400000023914201D38D
:1003A000891A034340084FEA4101F7D151B1914204
:1003B00002D14FF0004105E002D24FF0010101E00F
:1003C0006FF0010103EBC450284430BC00F02FB89B
:1003D00096230022114600F033B820F00040C10DF2
:1003E000C0F3160040F400007F2901DA00207047B6
:1003F000962903DCC1F19601C840704796398840C0
:10040000704730B50B46014600202022012409E048
:1004100021FA02F59D4205D303FA02F5491B04FABD
:1004200002F52844151EA2F10102F1DC30BD0029BD
:10043000A8BF7047401C490008BF20F0010070476A
:1004400010B4B0FA80FC00FA0CF050EA010404BFCA
:1004500010BC704749B1CCF1200421FA04F411FA20
:100460000CF118BF012121430843A3EB0C01CB1D64
:100470004FEA00614FEA102042BF002010BC7047D5
:1004800000EBC35010440029A4BF10BC7047401CAF
:10049000490008BF20F0010010BC7047064C074D12
:1004A00006E0E06840F0010394E807009847103444
:1004B000AC42F6D3FFF740FED02E0008F02E000825
:1004C00000B5002015490861C8601420486100206B
:1004D0008861C8610846006840F00100086008466D
:1004E00040680F4908400D494860084600680D49BA
:1004F00008400A4908600846006820F48020086027
:100500000846406820F4FE00486000208860002112
:100510004FF0006000F058F800BD000000100240ED
:100520000000FFF8FFFFF6FE2DE9F0410746884680
:1005300014461D46284600F033F8C5F1040007FABA
:1005400000F60F20284100EA0800064306F00F06D7
:10055000E21704EBD2625211920002F1E022D2F8CB
:1005600000212146E31704EBD3635B11A4EB431C8A
:10057000012303FA0CF31A432046E31704EBD36379
:100580005B119B0003F1E023C3F800210348005DE9
:1005900040EA061001490855BDE8F08100E400E09A
:1005A0000146072323EA01021202054B18684FF6A1
:1005B000FF031840034B18431043014B186070476A
:1005C0000CED00E00000FA05024A0A400243024B2B
:1005D0001A60704780FFFF1F08ED00E030B5044649
:1005E0000025FFF76DFF1F48006840F480301D496B
:1005F000086000BF1B480068400C0028FAD04FF488
:10060000806018494860A01EC4B20846406840EAAD
:10061000844048600846406840F480304860124892
:10062000006840F03200104908600E48006840F051
:1006300080700C49086000BF0A480068400E00281E
:10064000FAD00848406840F002000649486005E0DA
:1006500004484068C0F3870505F00305022DF7D173
:1006600030BD0000001002400020024010B502F032
:1006700067F9012801D001F0C5FD10BD1D490988A9
:1006800001F0200111B31B49091D0988C8B21A499C
:10069000098801F40041C9B91749098801F480416A
:1006A00061B10A2803D00021134A118020E01249C9
:1006B000098841F40041104A118019E00D2806D143
:1006C0000D49098841F480410B4A118010E00A4924
:1006D0000988C1F30D01094A505407490988491C8A
:1006E000054A118011460988C72901DD00211180C2
:1006F00070470000003801401800002090000020E2
:100700000FB4054B10B503A9044A029800F018F87D
:1007100010BC5DF814FB00004D0900081400002017
:1007200002E008C8121F08C1002AFAD170477047BA
:10073000002001E001C1121F002AFBD17047000018
:100740002DE9FF4F8BB09A460F460546002606E07E
:1007500025280BD052460D9990476D1C761C2878A1
:100760000028F5D10FB03046BDE8F08F0024A04638
:100770000122604900E0044315F8013F203B02FAE2
:1007800003F00842F7D128782E2817D115F8010F69
:1007900044F004042A280ED06FF02F022878A0F12C
:1007A000300109290AD808EB880102EB410100EB6E
:1007B00001086D1CF2E757F8048B6D1C2878692836
:1007C0003ED006DC0028CDD063280BD0642804D1AD
:1007D00036E0732810D075284BD052460D999047BB
:1007E000761C85E017F8040B8DF8000000208DF8CA
:1007F0000100E946012003E057F8049B4FF0FF3069
:1008000061074FF0000401D40AE0641C44450DDA8E
:100810008442FADB19F804100029F6D106E0641CC2
:100820008442FCDB19F804100029F8D1264404E0C6
:1008300019F8010B52460D999047641EF8D257E003
:1008400001CF4FF00A0B002802DA40422D2102E0CE
:10085000210504D52B218DF82410012103E0E107A7
:1008600005D02021F7E70DF1200908910CE00021C7
:10087000F9E701CF4FF00A0BF9E75946FFF7C1FD41
:1008800001F1300209F8012D0028F6D1ADEB090085
:1008900000F1200B600701D44FF00108D84502DDBC
:1008A000A8EB0B0000E000208046002406E009A829
:1008B0005246005D0D999047641C761C089884424E
:1008C000F5DB04E0302052460D999047761CB8F1D4
:1008D0000001A8F10108F5DC05E019F8010B52460A
:1008E0000D999047761CBBF10001ABF1010BF4DCD4
:1008F0006D1C34E7092801000146104A1268104BAC
:10090000B2FBF3F20F4B1A700C4A12680C4BB2FB9D
:10091000F3F04FF47A72504301220B4B1A804FF0E0
:10092000E022126942F002024FF0E0231A611A46F7
:100930005061126942F001021A6170470C000020F8
:1009400040420F00100000201200002000BF054AA6
:10095000128802F04002002AF9D0C2B2014B1B1DDE
:100960001A807047003801401448806940F0400008
:10097000124988611248006812490840104908600D
:1009800008460068104908430D4908600C480C30BF
:10099000006840F002000A490C310860084600680F
:1009A00040F0040008600846006840F00800086055
:1009B0000846006840F010000860704700100240D0
:1009C000001801400F00F0FF808808001748806978
:1009D00040F00800154988611548006820F0F000D3
:1009E000134908600846006840F03000086010486D
:1009F0000830006840F400700D49083108600B4869
:100A0000806940F48070094988610A48406820F094
:100A10007040084948600846406840F040504860CF
:100A20000846C06840F40040C860704700100240AB
:100A3000040C0140002001401CB500240920FFF7F0
:100A4000CDFD4820FFF758FFFFF7C0FFFFF78CFFF1
:100A50004FF4E131482000F0D1FE07480121002386
:100A60008022CDE9001005A1074801F039FF01F00F
:100A7000BBFA00201CBD00000000002073746172EE
:100A8000745F7461736B0000591700082DE9F04121
:100A900005460E461C4807681C480068001D00F00B
:100AA0001BFF50B91948006890F82C1001208840AD
:100AB00017490968814316480160681C38B936B186
:100AC00012480168091D134800F044FF1AE07C1920
:100AD0000E4800684460BC4207D20C480168091DFA
:100AE0000D48006800F01CFF0CE008480168091D73
:100AF0000A48006800F014FF09480068844201D2E7
:100B000007480460BDE8F081300000201C00002090
:100B10003400002068040020240000202000002071
:100B20004C00002010B5044600F020FF2448006867
:100B3000401C234908602348006840B921480460EC
:100B40000846006801280DD100F0F4F90AE01E48BB
:100B5000006838B91B480068C06AE16A884201D859
:100B60001848046019480068401C18490860084685
:100B70000068606494F82C100120884014490968CA
:100B8000084313490860E16A01EB8101114A02EB55
:100B90008100211D00F0DEFE00F030FF0A480068F1
:100BA00068B108480068C06AE16A884207D24FF01D
:100BB000805009490860BFF34F8FBFF36F8F10BD9E
:100BC0002C0000201C0000203800002048000020DD
:100BD000340000209801002004ED00E010B500F082
:100BE000C5FE10480068D0B90F4800F089FE0F48D4
:100BF00000F086FE0C480E4908600C480D4908605C
:100C000000221021052001F017FB06490860084664
:100C1000006820B108A10348006800F0EFFF00F071
:100C2000EDFE10BD600000207C0400209004002038
:100C3000580000205C000020546D7251000000003C
:100C400070B523E001F02CFA1348006808B90120C0
:100C500000E00020054602F011F8BDB900F086FE64
:100C60000D48C068C468201D00F036FE0B480068BF
:100C7000401E0A4908600A480068401E084908608A
:100C800000F0BCFE204600F060F800BF0448006899
:100C90000028D7D170BD0000540400202C00002093
:100CA0002800002070B504460D46206C70B1216C00
:100CB000E0680844E0606168E068884201D3206829
:100CC000E0602846226CE168FFF796FA70BD2DE9D6
:100CD000F04104460F4615464FF00008A66B206C05
:100CE00040B9206860BB606801F0F6FE80460020D5
:100CF000606025E07DB93946226CA068FFF77CFA78
:100D0000216CA0680844A060D4E90110884217D380
:100D10002068A06014E03946226CE068FFF76CFAA6
:100D2000216CE068401AE0602168E068884203D2E4
:100D3000216C6068401AE060022D01D106B1761E78
:100D4000701CA0634046BDE8F08110B50446206BDE
:100D500000F090FE204600F08DFE10BD0146084ACE
:100D6000126812680AB9012200E000220A600A68CB
:100D700022B9034A1268D268106800E00020704768
:100D80005800002030B54FF4A043174800F0070486
:100D90002CB1C01D20F00700134C041B1B1B024686
:100DA000124C22600024114D6C60D018083820F0DD
:100DB00007000F4C206000240D4D2D686C600C4D19
:100DC0002D682C601146441A4C60094C24680C6054
:100DD000084D4C682C60084D4C682C604FF0004466
:100DE000064D2C6030BD0000A40400206C000020E3
:100DF000740000207C00002078000020800000208B
:100E000000BFFFF71DFF064800680128F9D94FF021
:100E1000805004490860BFF34F8FBFF36F8FF0E736
:100E20009801002004ED00E02DE9F04106460D4652
:100E300017469846069C0DB9246000E02760E663DB
:100E400025640121204601F021FB84F85080002018
:100E5000A064BDE8F08100002DE9F05F82460F46F6
:100E600090469B460A9E0C9C4FEA8801A522206B67
:100E7000FFF7D4F9A8F10100216B01EB800929F0FB
:100E8000070909F0070008B9012000E0002028B98F
:100E900040F22B321BA123A0FFF732FC002507E014
:100EA000795D04F134004155785D00B902E06D1CB4
:100EB000102DF5D300BF002143200155202E00D373
:100EC0001F26E662E66400202065201D00F025FD57
:100ED00004F1180000F021FD2461C6F12000A0619A
:100EE00064620020606584F858005A4651464846BE
:100EF00000F020FC20600B9808B10B980460BDE85E
:100F0000F09F00002E2E5C555345522D434F444513
:100F10005C4672656552544F535C7461736B732EFB
:100F2000630000004572726F723A25732C25640DC0
:100F30000A00000010B5002407E004EB84010F4A0A
:100F400002EB810000F0DCFC641C202CF5D30C4883
:100F500000F0D6FC0B4800F0D3FC0B4800F0D0FCAE
:100F60000A4800F0CDFC0A4800F0CAFC04480949D0
:100F7000086004480849086010BD0000980100207E
:100F8000180400202C0400204004002054040020F9
:100F900068040020200000202400002010B5014635
:100FA000164800E0006803688B42FBD302464368A2
:100FB00013448B4204D143684C6823444360014688
:100FC0000A464B6813440468A34211D10C4C0368D1
:100FD0002468A34208D04B680468646823444B60CB
:100FE00003681B680B6005E0054B1B680B6001E0A4
:100FF00003680B60884200D0016010BD6C000020C7
:10100000740000202DE9F04104460D4616461F46A7
:101010004FF0000865602461B5420CD8F01BA1694F
:10102000884202D34FF0010811E0211D09480068F1
:1010300000F076FC0BE0BE4204D2BD4202D34FF07A
:10104000010804E0211D0448006800F069FC4046E6
:10105000BDE8F0815C0000205800002070B5054616
:1010600000F084FCA86B08B9012400E0002400F023
:10107000C5FC204670BD70B5054600F077FCA86B36
:10108000E96B884201D1012400E0002400F0B6FCA5
:10109000204670BD2DE9F3410D460098846C002771
:1010A0002CB940F6CE121AA121A0FFF729FBA06BA4
:1010B000E16B884201D2012000E0002028B940F60F
:1010C000CF1213A11AA0FFF71BFBA06BE16B8842A4
:1010D0001BD294F945602A4669462046FFF7F7FD82
:1010E0000746701C60B9606A08B9012000E0002062
:1010F00050B904F1240001F061FD28B1012703E09B
:10110000701C40B284F8450000BF3846BDE8FC8141
:101110002E2E5C555345522D434F44455C46726517
:101120006552544F535C71756575652E6300000000
:101130004572726F723A25732C25640D0A00000007
:10114000F8B505460F4613480068C068C468201DFE
:1011500000F0C2FBE069012818D1A06941192B46B3
:101160003A462046FFF74EFF80B1002003462A464C
:1011700001460090204601F055FE06462EB94FF478
:10118000027205A10CA0FFF7BBFA00BF2046616AFE
:101190008847F8BD580000202E2E5C555345522D2F
:1011A000434F44455C4672656552544F535C7469C5
:1011B0006D6572732E6300004572726F723A25730B
:1011C0002C25640D0A000000F0B587B070E003988C
:1011D00000280CDA04AE2EB940F2E7223AA142A070
:1011E000FFF78EFAD6E90020B168904700BF039858
:1011F00000285DDB059C606908B9012000E0002043
:1012000010B9201D00F068FB02A800F0CBF80546DD
:1012100003980A284AD2DFE800F00905072C2E457A
:1012200006082D2F00BF00BF00BF00BF0498A269B1
:10123000811803462A462046FFF7E4FEC0B1204647
:10124000616A8847E069012812D100200090049863
:10125000A169421800231946204601F0E3FD074624
:101260002FB940F2213218A11FA0FFF749FA00BFA1
:101270001DE000BF1BE000BF0498A061A06908B199
:10128000012000E0002028B94FF44E720EA116A0F4
:10129000FFF736FAA06941192B462A462046FFF788
:1012A000B1FE04E0204600F0E5FB00E000BF00BF17
:1012B00000231A4603A91048006800F0FDFF00282B
:1012C00085D107B0F0BD00002E2E5C555345522D40
:1012D000434F44455C4672656552544F535C746994
:1012E0006D6572732E6300004572726F723A2573DA
:1012F0002C25640D0A00000060000020F8B50546AA
:101300000C4600F0CDFE684600F04CF8064600980A
:1013100020BB44B9B54206D801F0B0FC314628469E
:10132000FFF70EFF1CE03CB10E480068006808B9EA
:10133000012000E000200446A91B22460A4800685C
:1013400000F072FC01F09AFC50B94FF08050074950
:101350000860BFF34F8FBFF36F8F01E001F08EFC89
:10136000F8BD00005C0000206000002004ED00E0FB
:101370000A490968096809B9012100E0002121B181
:101380004FF0FF31064A116006E004490968C96858
:10139000C868034A416811607047000020000020BF
:1013A0004C00002070B5044601F0DAFA0546074803
:1013B0000068854204D200F00BF80120206001E0B3
:1013C0000020206001480560284670BD68000020AC
:1013D0002DE9F8432DE021480068C06805681F48E2
:1013E0000068C068C468201D00F076FA2046616A73
:1013F0008847E06901281CD1A0694619AE4207D987
:1014000066602461211D1548006800F089FA10E02B
:10141000002003462A4601460090204601F002FDC6
:1014200007462FB940F292320DA115A0FFF768F9D7
:1014300000BF0A480068006808B9012000E00020E9
:101440000028C8D00548D0F800801148006803493A
:1014500008600F48C0F80080BDE8F88358000020FD
:101460002E2E5C555345522D434F44455C467265C4
:101470006552544F535C74696D6572732E6300003E
:101480004572726F723A25732C25640D0A000000B4
:101490005C0000200B480068401C08B9012000E0F7
:1014A000002020B9F42208A114A0FFF729F900BFF9
:1014B000502080F31188BFF34F8FBFF36F8F00BFB1
:1014C00000BFFEE7840000202E2E5C555345522DB0
:1014D000434F44455C4672656552544F535C706F90
:1014E000727461626C655C525644535C41524D5F4C
:1014F000434D335C706F72742E6300004572726FDF
:10150000723A25732C25640D0A00000008B500BF4F
:101510006846FFF723FC044620460099FFF7EEFEDD
:10152000FFF752FEF4E770B5044600F01FFA94F995
:1015300045501AE0A06C38B100212046FFF7AAFD03
:1015400088B100F063FC0EE0606A08B9012000E099
:10155000002038B904F1240001F030FB18B100F08C
:1015600055FC00E003E0681E45B2002DE2DC00BF40
:10157000FF2084F8450000F041FA00F0F7F994F9F3
:10158000445010E0206908B9012000E0002048B96B
:1015900004F1100001F012FB08B100F037FC681EE6
:1015A00045B200E001E0002DECDC00BFFF2084F834
:1015B000440000F023FA70BD2DE9F04104464FF0DD
:1015C000000800F06DFD3E48006808B9FFF7DAFB3F
:1015D0003C480068204000285FD1A4B1083404F0E2
:1015E000070080B104F00700C0F10800044404F0D3
:1015F000070008B9012000E0002020B9BF2232A175
:101600003DA0FFF77DF8002C47D03F48006884429A
:1016100043D83E4E3046056801E02E462D68686886
:10162000A04202D228680028F7D1254800688542E8
:1016300033D0306800F10808286830606868001B03
:10164000102813D92F1907F0070008B9012000E06E
:10165000002020B9EC221CA127A0FFF751F86868F0
:10166000001B78606C603846FFF798FC2649686874
:101670000968081A2449086008460068244909686E
:10168000884203D220480068214908600D496868F3
:101690000968084368600020286001F0EFFA08F04C
:1016A000070008B9012000E0002028B94FF4967225
:1016B00005A111A0FFF724F84046BDE8F081000025
:1016C00074000020800000202E2E5C555345522DC2
:1016D000434F44455C4672656552544F535C706F8E
:1016E000727461626C655C4D656D4D616E675C68BE
:1016F0006561705F342E63004572726F723A2573B4
:101700002C25640D0A000000780000206C000020E9
:101710007C0000200648006830B10549096801F1E5
:101720005000096D491C01600148006870470000C5
:101730001C000020001F4FF080730360001F21F089
:1017400001030360001F034B03601438026020385C
:1017500070470000951400081CB5044600F006F917
:101760000D48022100233222CDE900100BA10E48C2
:1017700001F0B6F80D48032100233222CDE9001014
:101780000BA10E4801F0ACF80D48006800F0B2FA69
:1017900000F034F91CBD0000040000207461736B7C
:1017A000315F7461736B0000C517000808000020EA
:1017B0007461736B325F7461736B0000F117000822
:1017C0000000002011E0642C01DD002401E0601C19
:1017D00084B20648006808B9012000E000200349EF
:1017E00008604FF4FA7000F045FAECE7A48121425A
:1017F00003E04FF4FA7000F03DFAFAE72DE9F05FEC
:1018000005460E463001FEF7E3FD81462E4905FBF5
:1018100001F0FEF7DDFD82464946FEF79BFD0746D7
:101820003846FEF7DAFD84B22046FEF7D1FD834646
:101830003946FEF75AFD82464FF08341FEF758FDC8
:101840008146FEF7CAFD80464FF6FF7000EA041499
:1018500004EB080084B21D48806940F004001B4975
:1018600088610846806940F48040886118480068B3
:1018700020F47F60164908600846006840F40B6059
:1018800008601248C06840F480401049C8600846AB
:10189000C06820F48040C8600E480480001D0088A5
:1018A00042F20C0108430B49091D088008460088D4
:1018B00040F0200008800223252203210846FEF77D
:1018C00033FEBDE8F09F000040420F0000100240D0
:1018D000040801400838014001460A69D1E9013095
:1018E0009860D1E9010358605068884201D1886846
:1018F0005060002008611068401E1060106870473A
:1019000000F1080141604FF0FF31816000F10801F2
:10191000C1600161002101607047002101617047D1
:1019200010B502460B685C1C0CB9106907E002F1A7
:10193000080000E04068446824689C42FAD9446882
:101940004C604C68A160886041600A611468641C46
:10195000146010BD42684A6093688B609368596058
:101960009160086103685B1C0360704710B500BF9D
:10197000502080F31188BFF34F8FBFF36F8F00BFEC
:101980000B480068401C0A490860084600680128A6
:101990000DD108480068C0B208B9012000E000205D
:1019A00028B94FF4BD7204A110A0FEF7A9FE10BD26
:1019B0008400002004ED00E02E2E5C555345522D8E
:1019C000434F44455C4672656552544F535C706F9B
:1019D000727461626C655C525644535C41524D5F57
:1019E000434D335C706F72742E6300004572726FEA
:1019F000723A25732C25640D0A00000010B50B48BF
:101A0000006828B940F2811209A116A0FEF778FEFD
:101A100006480068401E054908600846006820B96D
:101A2000002080F3118800BF00BF10BD840000209B
:101A30002E2E5C555345522D434F44455C467265EE
:101A40006552544F535C706F727461626C655C5286
:101A50005644535C41524D5F434D335C706F72741A
:101A60002E6300004572726F723A25732C25640D47
:101A70000A00000070B506463546002E35D0083DF8
:101A80002C461A4960680968084008B1012000E046
:101A9000002028B94FF4A07215A121A0FEF730FE56
:101AA000206808B9012000E0002028B940F2411266
:101AB0000FA11BA0FEF724FE0C49606809680840CE
:101AC00098B1206888B909496068096888436060EE
:101AD00000F0E6FA1649606809680844144908608D
:101AE0002046FFF75BFA01F0C9F870BD80000020C6
:101AF0002E2E5C555345522D434F44455C4672652E
:101B00006552544F535C706F727461626C655C4DCA
:101B1000656D4D616E675C686561705F342E630052
:101B20004572726F723A25732C25640D0A0000000D
:101B300078000020064800684FF47A71B0FBF1F09D
:101B4000401E4FF0E0214861072008617047000007
:101B50000C00002070B5FEF73DFB0546102D11D39B
:101B600005F1E02090F8F04310480078844201DB52
:101B7000012000E0002028B94FF42A720CA119A01E
:101B8000FEF7BEFD1B48006800F4E0601A490968D2
:101B9000884201D8012000E0002028B94FF42E72BD
:101BA00003A110A0FEF7ACFD70BD0000880000206E
:101BB0002E2E5C555345522D434F44455C4672656D
:101BC0006552544F535C706F727461626C655C5205
:101BD0005644535C41524D5F434D335C706F727499
:101BE0002E6300004572726F723A25732C25640DC6
:101BF0000A0000000CED00E08C00002002460020EE
:101C00000BE0084B53F8303033B9064B43F8301033
:101C100003EBC0035A6002E0401C0828F1D300BF68
:101C200070470000580100202DE9F04105460E469E
:101C300017462C46FFF79AFE94F94400401C10B951
:101C4000002084F8440094F94500401C10B900209D
:101C500084F84500FFF7D2FEA06B28B93A4631461A
:101C600004F1240000F008F92046FFF75CFCBDE811
:101C7000F081000070B504460025ACB10F48006843
:101C800008B9012000E0002028B940F2CF420CA1A1
:101C900013A0FEF735FD00F003FA00212046FEF701
:101CA000F5FE00F0EBFF05463DB94FF080501049BE
:101CB0000860BFF34F8FBFF36F8F70BD54000020DB
:101CC0002E2E5C555345522D434F44455C4672655C
:101CD0006552544F535C7461736B732E6300000044
:101CE0004572726F723A25732C25640D0A0000004C
:101CF00004ED00E070B50546FFF738FE15B92D4834
:101D0000006800E028460446201DFFF7E5FD78B98D
:101D1000E06A00EB8000284951F8200040B994F8AF
:101D20002C1001208840254909688143234801601F
:101D3000A06A18B104F11800FFF7CEFD2048006832
:101D4000401C1F4908601B480068844209D1211DBE
:101D50001C48FFF7FFFD1C480068401C1A4908603A
:101D600009E01A480068401E184908602046FEF73E
:101D7000ECFFFFF7FDFAFFF741FE15480068C0B120
:101D80000C480068844214D11248006808B9012048
:101D900000E0002028B940F265420FA116A0FEF72E
:101DA000AFFC4FF0805018490860BFF34F8FBFF36E
:101DB0006F8F70BD1C0000209801002034000020AF
:101DC0004800002054040020280000202C0000209F
:101DD00038000020540000202E2E5C555345522D13
:101DE000434F44455C4672656552544F535C746181
:101DF000736B732E630000004572726F723A257325
:101E00002C25640D0A00000004ED00E001200149CA
:101E1000086070474000002070B504460D462CB99C
:101E200040F6063207A10FA0FEF76AFC11480168D0
:101E300018312046FFF774FD01212846FEF726FEE3
:101E400070BD00002E2E5C555345522D434F444526
:101E50005C4672656552544F535C7461736B732EAC
:101E6000630000004572726F723A25732C25640D71
:101E70000A0000001C00002070B505460E461446FE
:101E80002DB940F6313209A110A0FEF739FC1348F4
:101E9000016818312846FFF75DFD0CB14FF0FF36A1
:101EA00021463046FEF7F2FD70BD00002E2E5C5537
:101EB0005345522D434F44455C4672656552544F1D
:101EC000535C7461736B732E630000004572726F14
:101ED000723A25732C25640D0A0000001C000020B6
:101EE00070B505462C46002D4BD02649E06A09689E
:101EF000C96A884245D2A06900F0004028B921484B
:101F00000068C06AC0F12000A061E16A01EB8101B4
:101F10001D4A02EB81016069884201D1012000E085
:101F2000002050B3201DFFF7D7FC78B9E06A00EB22
:101F30008000154951F8200040B994F82C10012078
:101F40008840124909688143104801600D480068C3
:101F5000C06AE06294F82C10012088400B4909689F
:101F600008430A490860E16A01EB8101064A02EB75
:101F70008100211DFFF7EEFC03E002480068C06A03
:101F8000E06270BD1C000020980100203400002099
:101F900010B504462CB940F6C13205A10CA0FEF7DD
:101FA000AFFB0F48006820600E480068606010BDFD
:101FB0002E2E5C555345522D434F44455C46726569
:101FC0006552544F535C7461736B732E6300000051
:101FD0004572726F723A25732C25640D0A00000059
:101FE00044000020300000201CB51A4800210B4698
:101FF0008222CDE9001018A1194800F071FC0446B6
:10200000012C02D100F0D0FE0446012C15D100BFF6
:10201000502080F31188BFF34F8FBFF36F8F00BF45
:102020004FF0FF300F49086001200F490860002081
:102030000E49086000F096F80BE0601C08B1012022
:1020400000E0002028B940F2847209A110A0FEF738
:1020500057FB1CBD5000002049444C4500000000C7
:10206000010E00084C000020380000203000002045
:102070002E2E5C555345522D434F44455C467265A8
:102080006552544F535C7461736B732E6300000090
:102090004572726F723A25732C25640D0A00000098
:1020A00002480068401C0149086070475400002045
:1020B00010B51B48006818B101201A4908602DE0CE
:1020C00000201849086018480068B0FA80F0C0F194
:1020D0001F0404EB8400154951F8200008B10120C9
:1020E00000E0002028B940F6F62211A118A0FEF762
:1020F00007FB04EB84010D4A02EB8100416849684B
:10210000416000F1080142688A4202D14168496891
:1021100041604168C968124A116000BF10BD0000EB
:1021200054000020400000203400002098010020CE
:102130002E2E5C555345522D434F44455C467265E7
:102140006552544F535C7461736B732E63000000CF
:102150004572726F723A25732C25640D0A000000D7
:102160001C0000201CB52248014609780191FF217E
:10217000024611700146097800919DF8001001F0A7
:1021800050011C4A117007211B4A116009E01A49CD
:102190000968491E184A11609DF800104906090E89
:1021A00000919DF8001001F080018029EFD01249C4
:1021B00009680902104A11601146098801F4E061BA
:1021C00011600B4A019911700C48006840F47000CE
:1021D0000A4908600846006840F070400860FFF750
:1021E000A9FC002006490860FDF7BEFF00201CBDC9
:1021F00000E400E0880000208C00002020ED00E0DA
:102200008400002010B500BF502080F31188BFF378
:102210004F8FBFF36F8F00BF00F0A8FB18B14FF0D6
:1022200080500449086000BF002080F3118800BF7F
:1022300010BD000004ED00E02DE9F84305460E4610
:1022400090460DB1012000E0002028B94FF4C4727F
:102250000DA115A0FEF754FA0EB9002701E005FB09
:1022600006F707F15400FFF7A7F9044644B104F15B
:10227000540943464A46314628460094FEF7D4FDA9
:102280002046BDE8F88300002E2E5C555345522DA4
:10229000434F44455C4672656552544F535C7175BB
:1022A0006575652E630000004572726F723A257382
:1022B0002C25640D0A0000002DE9FF4782B0054679
:1022C0000E461F464FF0000A2C462CB940F2DC4265
:1022D00061A169A0FEF714FA0EB9206C08B90120BB
:1022E00000E0002028B940F2DD425BA162A0FEF7C9
:1022F00007FA00F025FB08B9049808B9012000E0AE
:10230000002028B94FF49C6253A15BA0FEF7F8F9B6
:1023100000BFFFF72BFBD4F83890B9F1000F3DD088
:10232000D4F80C8031462046FEF7BCFCDFB9A9F199
:102330000100A063206810B9FFF7ECF96060206924
:1023400008B9012000E0002010BB04F1100000F0EB
:1023500035FCE8B14FF080504B490860BFF34F8F18
:10236000BFF36F8F14E0C4F80C80606A08B90120D5
:1023700000E0002060B904F1240000F01FFC38B137
:102380004FF0805040490860BFF34F8FBFF36F8F0D
:10239000FFF734FB012006B0BDE8F087049818B9B8
:1023A000FFF72CFB0020F6E7BAF1000F04D16846D6
:1023B000FFF7EEFD4FF0010AFFF720FBFFF770FE7D
:1023C000FFF7D4FA94F94400401C10B9002084F8B7
:1023D000440094F94500401C10B9002084F84500E1
:1023E000FFF70CFB04A9684600F024FA40BB204626
:1023F000FEF734FEF0B1206830B9FFF7B7FA606835
:10240000FFF76EFDFFF7FAFA04F124000499FFF7D5
:1024100003FD2046FFF787F800F030FC00287FF42A
:1024200078AF4FF0805018490860BFF34F8FBFF36B
:102430006F8F6EE72046FFF776F800F01FFC68E725
:102440002046FFF770F800F019FC2046FEF706FE64
:102450000028EED000209EE72E2E5C555345522DCD
:10246000434F44455C4672656552544F535C7175E9
:102470006575652E630000004572726F723A2573B0
:102480002C25640D0A00000004ED00E070B505463F
:102490000E462C462CB940F21B121EA125A0FEF7B9
:1024A0002FF9FFF763FAD4E90F12206801FB02004D
:1024B00060600020A0632068A060E06B401E226C7A
:1024C000216800FB0210E060FF2084F8440084F8DB
:1024D00045009EB9206908B9012000E00020A8B994
:1024E00004F1100000F06AFB80B14FF080501549F4
:1024F0000860BFF34F8FBFF36F8F07E004F1100048
:10250000FFF7FEF904F12400FFF7FAF9FFF776FA76
:10251000012070BD2E2E5C555345522D434F44452E
:102520005C4672656552544F535C71756575652ED6
:10253000630000004572726F723A25732C25640D9A
:102540000A00000004ED00E02DE9FF4383B00646D9
:1025500088461D464FF0000934462CB940F2D92276
:1025600060A168A0FEF7CCF8B8F1000F01D1206C93
:1025700008B9012000E0002028B940F2DA2259A170
:1025800060A0FEF7BDF8022D02D1E06B012801D159
:10259000012000E0002028B940F2DB2251A159A01F
:1025A000FEF7AEF800F0CCF908B9059808B901209B
:1025B00000E0002028B940F2DE224AA151A0FEF737
:1025C0009FF800BFFFF7D2F9A06BE16B884201D3FF
:1025D000022D38D12A4641462046FEF778FB0746B1
:1025E000A06C68B129462046FEF754FD28B34FF091
:1025F000805048490860BFF34F8FBFF36F8F1CE0D6
:10260000606A08B9012000E0002068B904F12400E4
:1026100000F0D4FA88B14FF080503E490860BFF313
:102620004F8FBFF36F8F08E03FB14FF080503949B3
:102630000860BFF34F8FBFF36F8FFFF7DFF9012003
:1026400007B0BDE8F083059818B9FFF7D7F9002067
:10265000F6E7B9F1000F04D101A8FFF799FC4FF09C
:102660000109FFF7CBF9FFF71BFDFFF77FF994F99D
:102670004400401C10B9002084F8440094F945003F
:10268000401C10B9002084F84500FFF7B7F905A9F0
:1026900001A800F0CFF8F0B92046FEF7ECFCA0B19D
:1026A00004F110000599FFF7B7FB2046FEF73BFF4A
:1026B00000F0E4FA002885D14FF0805015490860F9
:1026C000BFF34F8FBFF36F8F7CE72046FEF72BFFE2
:1026D00000F0D4FA76E72046FEF725FF00F0CEFAA8
:1026E0000020ADE72E2E5C555345522D434F4445F7
:1026F0005C4672656552544F535C71756575652E05
:10270000630000004572726F723A25732C25640DC8
:102710000A00000004ED00E02DE9F05F80468A46E3
:1027200015461E4644462CB940F29F3235A13DA0C5
:10273000FDF7E6FFBAF1000F01D1206C08B90120C6
:1027400000E0002028B94FF468722EA135A0FDF7F3
:10275000D7FF022E02D1E06B012801D1012000E059
:10276000002028B940F2A13226A12EA0FDF7C8FF13
:10277000FFF7F0F900BF5021EFF3118081F31188CA
:10278000BFF34F8FBFF36F8F00BF0746A06BE16BA6
:10279000884201D3022E2BD194F945B032465146DE
:1027A0002046FEF794FA0BF10100C8B9A06C40B1C5
:1027B00031462046FEF76EFCB8B1B5B10120286065
:1027C00013E0606A08B9012000E0002068B904F154
:1027D000240000F0F3F940B13DB10120286004E08D
:1027E0000BF1010040B284F845004FF0010901E00F
:1027F0004FF0000900BF87F3118800BF4846BDE8CD
:10280000F09F00002E2E5C555345522D434F4445FA
:102810005C4672656552544F535C71756575652EE3
:10282000630000004572726F723A25732C25640DA7
:102830000A0000002DE9F04104460D462CB940F68F
:10284000CB3219A120A0FDF75BFF2DB940F6CC32A9
:1028500015A11DA0FDF754FFFFF788F81E48076873
:102860002868401C08B9002619E01C49206809683E
:10287000884204D06068B84201D801260FE0606841
:10288000381A2968884209D228686168791A401A7A
:1028900028602046FFF77CFB002600E00126FFF7BA
:1028A000ADF83046BDE8F0812E2E5C555345522DD3
:1028B000434F44455C4672656552544F535C7461A6
:1028C000736B732E630000004572726F723A25734A
:1028D0002C25640D0A000000300000204400002078
:1028E0002DE9FF4F85B0804689461746DDE912ABDA
:1028F000B800FEF761FE064656B15C20FEF75CFEAE
:1029000004460CB1266304E03046FFF7B3F800E05C
:1029100000247CB10020CDE900ABCDE902403A466D
:1029200049464046089BFEF797FA2046FEF7FAF81C
:10293000012501E04FF0FF35284609B0BDE8F08FD2
:102940000549096809B9012005E00449096809B980
:10295000022000E0002070473800002054000020D2
:102960000149086870470000300000202DE9F0415F
:102970004FF0000841480068002872D140480068C4
:10298000451C3F480560EDB93E480068006808B93D
:10299000012000E0002028B940F6D9123AA142A057
:1029A000FDF7AEFE374807684348006835490860C0
:1029B0004148076041480068401C40490860FEF7F4
:1029C000D7FC00BF3E48006885423CD300BF2D487D
:1029D0000068006808B9012000E0002020B14FF035
:1029E000FF30374908602DE026480068C068C46899
:1029F0006668B54202D23248066023E0201DFEF729
:102A00006BFFA06A18B104F11800FEF765FF94F897
:102A10002C10012088402B49096808432949086087
:102A2000E16A01EB8101284A02EB8100211DFEF7DA
:102A300091FF2649E06A0968C96A8842C7D34FF006
:102A40000108C4E700BF21480068C06A00EB8000AD
:102A50001D4951F82000012801D94FF0010805E077
:102A6000FFE71B480068401C1949086019480068C6
:102A700008B14FF001084046BDE8F0815400002045
:102A800030000020200000202E2E5C555345522D92
:102A9000434F44455C4672656552544F535C7461C4
:102AA000736B732E630000004572726F723A257368
:102AB0002C25640D0A0000002400002044000020A2
:102AC0004C00002034000020980100201C00002051
:102AD0003C0000204000002070B505462C46002632
:102AE000002D4BD026480068844201D1012000E02F
:102AF000002028B940F6C76222A12AA0FDF700FEF7
:102B0000206D28B940F6C9621EA126A0FDF7F8FD88
:102B1000206D401E2065E16CE06A88422ED0206D59
:102B200060BB201DFEF7D8FE78B9E06A00EB80009C
:102B3000204951F8200040B994F82C100120884019
:102B40001D49096881431C480160E06CE062E06A4D
:102B5000C0F12000A06194F82C1001208840164993
:102B60000968084314490860E16A01EB8101114AD0
:102B700002EB8100211DFEF7EDFE0126304670BDFF
:102B80001C0000202E2E5C555345522D434F4445CA
:102B90005C4672656552544F535C7461736B732E5F
:102BA000630000004572726F723A25732C25640D24
:102BB0000A000000980100203400002070B506468D
:102BC000F068C4682CB940F661321AA121A0FDF763
:102BD00097FD04F11800FEF77FFE22480068A8B9AF
:102BE000201DFEF779FE94F82C10012088401E4924
:102BF000096808431C490860E16A01EB81011B4A2E
:102C000002EB8100211DFEF7A5FE04E004F118018E
:102C10001748FEF79FFE1749E06A0968C96A8842AB
:102C200004D9012501201449086000E00025284648
:102C300070BD00002E2E5C555345522D434F444528
:102C40005C4672656552544F535C7461736B732EAE
:102C5000630000004572726F723A25732C25640D73
:102C60000A000000540000203400002098010020D9
:102C7000400400201C0000204000002070B500240B
:102C800000263448006828B94FF4FD6232A13AA00A
:102C9000FDF736FDFEF76AFE2E480068401E2D49FE
:102CA00008600846006800284FD1374800680028AF
:102CB0004BD024E03548C068C46804F11800FEF722
:102CC0000BFE201DFEF708FE94F82C100120884012
:102CD0002F49096808432E490860E16A01EB810128
:102CE0002C4A02EB8100211DFEF734FE2A49E06ADE
:102CF0000968C96A884202D301202849086023482C
:102D0000006808B9012000E000200028D2D00CB1F2
:102D1000FEF72EFB2248056865B100BFFFF726FECF
:102D200010B101201D4908606D1E002DF6D1002054
:102D30001B4908601948006838B101263007194955
:102D40000860BFF34F8FBFF36F8FFEF757FE30461B
:102D500070BD0000540000202E2E5C555345522DAE
:102D6000434F44455C4672656552544F535C7461F1
:102D7000736B732E630000004572726F723A257395
:102D80002C25640D0A0000002C00002040040020C7
:102D900034000020980100201C000020400000208A
:102DA0003C00002004ED00E01CB50024FDF716FFF8
:102DB0000B48006858B10B481F2100234FF4827262
:102DC000CDE9001008A10A48FFF78AFD04462CB996
:102DD00040F2331207A10FA0FDF792FC20461CBD64
:102DE0006000002064000020546D72205376630060
:102DF0000D1500082E2E5C555345522D434F44456A
:102E00005C4672656552544F535C74696D657273AC
:102E10002E6300004572726F723A25732C25640D83
:102E20000A0000002DE9FF4704460D4616461F46DE
:102E3000DDF830804FF000092CB94FF4D37217A1A0
:102E40001EA0FDF75DFC2148006810B300950196B7
:102E50000294062D15DAFFF773FD022808D100232E
:102E60004246694619480068FFF76EFB814610E04C
:102E700000231A46694615480068FFF765FB81463E
:102E800007E000233A46694610480068FFF744FC13
:102E90008146484604B0BDE8F08700002E2E5C5500
:102EA0005345522D434F44455C4672656552544F1D
:102EB000535C74696D6572732E6300004572726FA6
:102EC000723A25732C25640D0A0000006000002072
:102ED000F02E0008000000209000000020070008ED
:102EE000802F0008900000201858000030070008CC
:102EF00000000000000000000000000000A24A04E2
:102F000000000000000000000000000000000000C1
:102F100000000000000000000000000000000000B1
:102F200000000000000000000000000000000000A1
:102F30000000000000000000000000000000000091
:102F40000000000000000000000000000000000081
:102F50000000000000000000000000000000000071
:102F60000000000000000000000000000000000061
:102F700000000000AAAAAAAA0000000000000000A9
:0400000508000131BD
:00000001FF
