:020000040800F2
:10000000D804002045010008490100084B01000800
:100010004D0100084F0100085101000800000000D8
:100020000000000000000000000000005301000874
:1000300055010008000000005701000859010008A0
:100040005B0100085B0100085B0100085B01000820
:100050005B0100085B0100085B0100085B01000810
:100060005B0100085B0100085B0100085B01000800
:100070005B0100085B0100085B0100085B010008F0
:100080005B0100085B0100085B0100085B010008E0
:100090005B0100085B0100085B0100085B010008D0
:1000A0005B0100085B0100085B0100085B010008C0
:1000B0001D070008350700084D0700085B01000810
:1000C0005B0100085B0100085B0100085B010008A0
:1000D0005B010008650700085B0100085B01000880
:1000E0005B0100085B0100085B0100085B01000880
:1000F0005B0100085B0100085B0100085B01000870
:100100005B0100085B0100085B0100085B0100085F
:100110005B0100085B0100085B0100085B0100084F
:100120005B0100085B0100085B0100085B0100083F
:10013000DFF80CD000F02CF900480047E90800086F
:10014000D804002005480047FEE7FEE7FEE7FEE78B
:10015000FEE7FEE7FEE7FEE7FEE7FEE73101000807
:10016000F0B480EA0102D40F4200B2EB410F02D298
:100170000246084611464A0042D0C30DDDB2C1F323
:10018000C752AD1A202D35DAC1F3160141F4000231
:1001900004B15242C5F1200602FA06F12A41104488
:1001A000B3EBD05F23D0C4B1012DA0EBC35009DC69
:1001B000F0BC4FF0004202EAC352DBB200F500008F
:1001C00000F0B8B8400000F1807000EBC350A0F11F
:1001D000807040EAD170490009E0490841EAC071E5
:1001E000A0EBC35000F50000400800EBC350F0BC8A
:1001F00000F097B86142012202EB4101001BF6E7D3
:10020000F0BC704781F00041AAE780F00040A7E70A
:1002100080EA010210B502F00043400022D04A00FB
:100220001FD0010E01EB1261C0F35600C2F356025B
:1002300040F4000042F40002A0FB022000047F39D9
:10024000140400D0401C50EA124001D44000491E62
:10025000C2B20C0604EBD010401C4008802A02D029
:1002600003E0002010BD20F00100002900DA00208A
:10027000184310BD30B480EA010202F0004530F0AE
:10028000004221F0004013D090B1C30DD40DC2F351
:100290001601C0F31600E41A41F4000140F4000214
:1002A0007D34914201D3641C00E04900002C02DA45
:1002B00030BC002070474FF400000023914201D36E
:1002C000891A034340084FEA4101F7D151B19142E5
:1002D00002D14FF0004105E002D24FF0010101E0F0
:1002E0006FF0010103EBC450284430BC00F019B892
:1002F00096230022114600F01DB820F00040C10DE9
:10030000C0F3160040F400007F2901DA0020704796
:10031000962903DCC1F19601C840704796398840A0
:1003200070470029A8BF7047401C490008BF20F053
:100330000100704710B4B0FA80FC00FA0CF050EAEB
:10034000010404BF10BC704749B1CCF1200421FA6C
:1003500004F411FA0CF118BF012121430843A3EB67
:100360000C01CB1D4FEA00614FEA102042BF002074
:1003700010BC704700EBC35010440029A4BF10BC50
:100380007047401C490008BF20F0010010BC7047B6
:10039000064C074D06E0E06840F0010394E80700D2
:1003A00098471034AC42F6D3FFF7C6FE140A000893
:1003B000340A00086648806940F004006449886196
:1003C0000846806940F0080088610846806940F06E
:1003D000100088610846806940F0400088615D48EF
:1003E00000684FF60F7108405A49086008460068D7
:1003F0005949084357490860081D00684FF20F012A
:1004000088435449091D08600846006843F2030107
:1004100008435049091D08604E480C30006840F000
:1004200010004C490C3108600846006840F020007C
:1004300008600846006840F0400008600846006810
:1004400040F0800008600846006840F48070086052
:100450000846006840F4007008604048006820F4D6
:1004600070003E4908600846006840F4401008608B
:100470003A480C30006840F0200038490C310860E0
:100480003648001D006820F0F0003449091D08605E
:100490000846006840F03000086030480C300068C2
:1004A00040F400702D490C3108602D48006820F0A0
:1004B0007F402B4908600846006840F04C500860B7
:1004C0000846C06840F04000C8600846C06840F078
:1004D0008000C8600846406820F0FF004860084679
:1004E000406840F0330048600846C06840F48070BF
:1004F000C8600846C06840F40070C86019480068C9
:100500001949084017490860084600681749084318
:100510001449086013480C30006840F0020011498B
:100520000C3108600846006840F004000860084686
:10053000006840F0080008600846006840F01000BD
:1005400008600846006840F020000860704700001E
:100550000010024000080140B0003333000C01409D
:1005600000100140001801400F0000FF8088380093
:1005700000B5002015490861C860142048610020BA
:100580008861C8610846006840F0010008600846BC
:1005900040680F4908400D494860084600680D4909
:1005A00008400A4908600846006820F48020086076
:1005B0000846406820F4FE00486000208860002162
:1005C0004FF0006000F058F800BD0000001002403D
:1005D0000000FFF8FFFFF6FE2DE9F04107468846D0
:1005E00014461D46284600F033F8C5F1040007FA0A
:1005F00000F60F20284100EA0800064306F00F0627
:10060000E21704EBD2625211920002F1E022D2F81A
:1006100000212146E31704EBD3635B11A4EB431CD9
:10062000012303FA0CF31A432046E31704EBD363C8
:100630005B119B0003F1E023C3F800210348005D38
:1006400040EA061001490855BDE8F08100E400E0E9
:100650000146072323EA01021202054B18684FF6F0
:10066000FF031840034B18431043014B18607047B9
:100670000CED00E00000FA05024A0A400243024B7A
:100680001A60704780FFFF1F08ED00E030B5044698
:100690000025FFF76DFF1F48006840F480301D49BA
:1006A000086000BF1B480068400C0028FAD04FF4D7
:1006B000806018494860A01EC4B20846406840EAFD
:1006C000844048600846406840F4803048601248E2
:1006D000006840F03200104908600E48006840F0A1
:1006E00080700C49086000BF0A480068400E00286E
:1006F000FAD00848406840F002000649486005E02A
:1007000004484068C0F3870505F00305022DF7D1C2
:1007100030BD000000100240002002404FF0804039
:10072000008A4FF08040008A20F001004FF08041A5
:1007300008827047044800880348008820F00100C0
:1007400001490880704700001004004004480088F8
:100750000348008820F0010001490880704700002C
:10076000100800401D49098801F0200111B31B4900
:10077000091D0988C8B21A49098801F40041C9B99C
:100780001749098801F4804161B10A2803D000218A
:10079000134A118020E01249098841F40041104AAF
:1007A000118019E00D2806D10D49098841F48041D6
:1007B0000B4A118010E00A490988C1F30D01094A6A
:1007C000505407490988491C054A11801146098877
:1007D000C72901DD00211180704700000038014069
:1007E0000C0000201000002002E008C8121F08C101
:1007F000002AFAD170477047002001E001C1121FA2
:10080000002AFBD1704700004FF0E021096921F078
:1008100004014FF0E0221161C21700EB5272C2F3E3
:10082000C702074B1A701946097801EB4102C2EB67
:10083000C1114FF6FF7202EAC101024A11807047EE
:10084000000000200200002001460D4A12884A43A1
:100850004FF0E0235A6100229A6101221A6100BF21
:100860004FF0E022106900F001021AB100F480326A
:10087000002AF5D000224FF0E0231A619A617047F8
:10088000020000201549096809B9012100E0002192
:10089000124A083212680AB1012200E0002201EB7C
:1008A00042010E4A121D12680AB1012200E0002224
:1008B00001EB8201094A0C3212680AB1012200E000
:1008C000002201EBC20181F0FF0005490978414097
:1008D0000140044A11700249087070470401234224
:1008E000050000200400002000240920FFF7CEFEB0
:1008F0004820FFF789FFFFF75DFD4FF4E131482005
:1009000000F01AF814E0FFF7BDFF642C01DD0024AD
:1009100001E0601CC4B2642C07D10648006808B925
:10092000012000E00020034908600120FFF78CFF50
:10093000E9E70000A48121422DE9F05F05460E465B
:100940003001FFF7D5FC81462E4905FB01F0FFF78A
:10095000CFFC82464946FFF78DFC07463846FFF735
:10096000CCFC84B22046FFF7C3FC83463946FFF730
:100970004CFC82464FF08341FFF74AFC8146FFF76B
:10098000BCFC80464FF6FF7000EA041404EB08003C
:1009900084B21D48806940F004001B498861084604
:1009A000806940F4804088611848006820F47F60C6
:1009B000164908600846006840F40B600860124859
:1009C000C06840F480401049C8600846C06820F400
:1009D0008040C8600E480480001D008842F20C016F
:1009E00008430B49091D08800846008840F0200094
:1009F00008800223252203210846FFF7EDFDBDE80C
:100A0000F09F000040420F00001002400408014027
:100A100008380140340A00080000002010000000DF
:100A2000E8070008440A000810000020C80400007D
:100A3000F8070008000000000000000000000000AF
:040A400000000000B2
:0400000508000131BD
:00000001FF
