:020000040800F2
:100000005818002045010008490100084B0100086C
:100010004D0100084F0100085101000800000000D8
:100020000000000000000000000000005301000874
:1000300055010008000000005701000859010008A0
:100040005B0100085B0100085B0100085B01000820
:100050005B0100085B0100085B0100085B01000810
:100060005B0100085B0100085B0100085B01000800
:100070005B0100085B0100085B0100085B010008F0
:100080005B0100085B0100085B0100085B010008E0
:100090005B0100085B0100085B0100085B010008D0
:1000A0005B0100085B0100085B0100085B010008C0
:1000B0009D050008C1050008E50500085B01000872
:1000C0005B0100085B0100085B0100085B010008A0
:1000D0005B010008090600085B0100085B010008DD
:1000E0005B0100085B0100085B0100085B01000880
:1000F0005B0100085B0100085B0100085B01000870
:100100005B0100085B0100085B0100085B0100085F
:100110005B0100085B0100085B0100085B0100084F
:100120005B0100085B0100085B0100085B0100083F
:10013000DFF80CD000F02CF900480047CD0800088B
:100140005818002005480047FEE7FEE7FEE7FEE7F7
:10015000FEE7FEE7FEE7FEE7FEE7FEE73101000807
:10016000F0B480EA0102D40F4200B2EB410F02D298
:100170000246084611464A0042D0C30DDDB2C1F323
:10018000C752AD1A202D35DAC1F3160141F4000231
:1001900004B15242C5F1200602FA06F12A41104488
:1001A000B3EBD05F23D0C4B1012DA0EBC35009DC69
:1001B000F0BC4FF0004202EAC352DBB200F500008F
:1001C00000F0B8B8400000F1807000EBC350A0F11F
:1001D000807040EAD170490009E0490841EAC071E5
:1001E000A0EBC35000F50000400800EBC350F0BC8A
:1001F00000F097B86142012202EB4101001BF6E7D3
:10020000F0BC704781F00041AAE780F00040A7E70A
:1002100080EA010210B502F00043400022D04A00FB
:100220001FD0010E01EB1261C0F35600C2F356025B
:1002300040F4000042F40002A0FB022000047F39D9
:10024000140400D0401C50EA124001D44000491E62
:10025000C2B20C0604EBD010401C4008802A02D029
:1002600003E0002010BD20F00100002900DA00208A
:10027000184310BD30B480EA010202F0004530F0AE
:10028000004221F0004013D090B1C30DD40DC2F351
:100290001601C0F31600E41A41F4000140F4000214
:1002A0007D34914201D3641C00E04900002C02DA45
:1002B00030BC002070474FF400000023914201D36E
:1002C000891A034340084FEA4101F7D151B19142E5
:1002D00002D14FF0004105E002D24FF0010101E0F0
:1002E0006FF0010103EBC450284430BC00F019B892
:1002F00096230022114600F01DB820F00040C10DE9
:10030000C0F3160040F400007F2901DA0020704796
:10031000962903DCC1F19601C840704796398840A0
:1003200070470029A8BF7047401C490008BF20F053
:100330000100704710B4B0FA80FC00FA0CF050EAEB
:10034000010404BF10BC704749B1CCF1200421FA6C
:1003500004F411FA0CF118BF012121430843A3EB67
:100360000C01CB1D4FEA00614FEA102042BF002074
:1003700010BC704700EBC35010440029A4BF10BC50
:100380007047401C490008BF20F0010010BC7047B6
:10039000064C074D06E0E06840F0010394E80700D2
:1003A00098471034AC42F6D3FFF7C6FE580A00084F
:1003B000780A000830B58C1810F8012B12F00F03E2
:1003C00001D110F8013B120906D110F8012B03E00E
:1003D00010F8015B01F8015B5B1EF9D101E001F847
:1003E000013B521EFBD1A142E6D3002030BD0000EC
:1003F00000B5002015490861C8601420486100203C
:100400008861C8610846006840F00100086008463D
:1004100040680F4908400D494860084600680D498A
:1004200008400A4908600846006820F480200860F7
:100430000846406820F4FE004860002088600021E3
:100440004FF0006000F058F800BD000000100240BE
:100450000000FFF8FFFFF6FE2DE9F0410746884651
:1004600014461D46284600F033F8C5F1040007FA8B
:1004700000F60F20284100EA0800064306F00F06A8
:10048000E21704EBD2625211920002F1E022D2F89C
:1004900000212146E31704EBD3635B11A4EB431C5B
:1004A000012303FA0CF31A432046E31704EBD3634A
:1004B0005B119B0003F1E023C3F800210348005DBA
:1004C00040EA061001490855BDE8F08100E400E06B
:1004D0000146072323EA01021202054B18684FF672
:1004E000FF031840034B18431043014B186070473B
:1004F0000CED00E00000FA05024A0A400243024BFC
:100500001A60704780FFFF1F08ED00E030B5044619
:100510000025FFF76DFF1F48006840F480301D493B
:10052000086000BF1B480068400C0028FAD04FF458
:10053000806018494860A01EC4B20846406840EA7E
:10054000844048600846406840F480304860124863
:10055000006840F03200104908600E48006840F022
:1005600080700C49086000BF0A480068400E0028EF
:10057000FAD00848406840F002000649486005E0AB
:1005800004484068C0F3870505F00305022DF7D144
:1005900030BD0000001002400020024010B54FF0B6
:1005A0008040008A00F0010008B100F0CFF94FF060
:1005B0008040008A20F001004FF08041088210BD89
:1005C00010B50748008800F0010008B100F0C6F936
:1005D0000348008820F001000149088010BD000098
:1005E0001004004010B50748008800F0010008B171
:1005F00000F0BCF90348008820F0010001490880A0
:1006000010BD0000100800401D49098801F02001BC
:1006100011B31B49091D0988C8B21A49098801F498
:100620000041C9B91749098801F4804161B10A281C
:1006300003D00021134A118020E01249098841F4B7
:100640000041104A118019E00D2806D10D49098892
:1006500041F480410B4A118010E00A490988C1F336
:100660000D01094A505407490988491C054A11805F
:1006700011460988C72901DD00211180704700005B
:1006800000380140881300208C13002002E008C8C5
:10069000121F08C1002AFAD170477047002001E0FC
:1006A00001C1121F002AFBD170470000022804D0AC
:1006B000032815D0042831D121E041B14FF0804208
:1006C000128842F001024FF080431A8007E04FF099
:1006D0008042128822F001024FF080431A801DE010
:1006E00031B10F4A128842F001020D4B1A8005E029
:1006F0000B4A128822F00102094B1A800EE031B138
:10070000084A128842F00102064B1A8005E0054AA9
:10071000128822F00102034B1A8000BF00BF70470D
:1007200000040040000800404FF0E021096921F07A
:1007300004014FF0E0221161C21700EB5272C2F3C4
:10074000C702074B1A701946097801EB4102C2EB48
:10075000C1114FF6FF7202EAC101024A11807047CF
:10076000801300208213002001460D4A12884A435C
:100770004FF0E0235A6100229A6101221A6100BF02
:100780004FF0E022106900F001021AB100F480324B
:10079000002AF5D000224FF0E0231A619A617047D9
:1007A0008213002010B50446207F012803D1206960
:1007B000401C206102E02069401E206104F5567053
:1007C000A26A50F822002169814216D1D4E90910A9
:1007D000B0EB410F0BD2A06A401CA06204F5E2729C
:1007E000A36A32F81310207800F098F805E020781A
:1007F0000021FFF75BFF0020607710BD144880697F
:1008000040F04000124988611248006812490840CF
:100810001049086008460068104908430D490860FF
:100820000C480C30006840F002000A490C310860A6
:100830000846006840F0040008600846006840F080
:10084000080008600846006840F010000860704723
:1008500000100240001801400F00F0FF80880800DF
:100860001748806940F008001549886115480068FC
:1008700020F0F000134908600846006840F030009E
:10088000086010480830006840F400700D490831D5
:1008900008600B48806940F48070094988610A4803
:1008A000406820F07040084948600846406840F0C1
:1008B000405048600846C06840F40040C860704737
:1008C00000100240040C01400020014000240920D7
:1008D000FFF71CFE4820FFF727FFFFF7C1FFFFF7D8
:1008E0008DFF4FF4E131482000F048F812E0642C0D
:1008F00001DD002401E0601CC4B2642C07D106486D
:10090000006808B9012000E00020034908600120C8
:10091000FFF72AFFEBE70000A4812142022804D060
:10092000032806D004280AD106E04FF08042118542
:1009300005E0044A118002E0034A118000BF00BFB5
:1009400070470000280400402808004010B5024805
:10095000FFF728FF10BD00000000002010B502487E
:10096000FFF720FF10BD00008006002010B50248F0
:10097000FFF718FF10BD0000000D00202DE9F05F0B
:1009800005460E463001FFF7B3FC81462E4905FBB4
:1009900001F0FFF7ADFC82464946FFF76BFC0746C6
:1009A0003846FFF7AAFC84B22046FFF7A1FC834635
:1009B0003946FFF72AFC82464FF08341FFF728FCB7
:1009C0008146FFF79AFC80464FF6FF7000EA041458
:1009D00004EB080084B21D48806940F004001B4904
:1009E00088610846806940F4804088611848006842
:1009F00020F47F60164908600846006840F40B60E8
:100A000008601248C06840F480401049C860084639
:100A1000C06820F48040C8600E480480001D008833
:100A200042F20C0108430B49091D08800846008862
:100A300040F0200008800223252203210846FFF70A
:100A40000BFDBDE8F09F000040420F000010024087
:100A50000408014008380140780A0008000000201E
:100A60008C130000B4030008DC0A00088C1300207B
:100A7000CC0400009C0600085A0200C800A08601B1
:100A8000000AA3DD6D4208420103FF200301FF01BC
:100A9000FF01FF01FF01FF016B5A0300C800A086A0
:100AA00001000AA3DD6D4208420103FF200301FF9C
:100AB00001FF01FF01FF01FF016B5A0400C800A004
:100AC0008601000AA3DD6D4208420103FF2C0101EB
:0C0AD000FF01FF01FF01FF01FF017700A3
:0400000508000131BD
:00000001FF
