:020000040800F2
:100000005818002045010008490100084B0100086C
:100010004D0100084F0100085101000800000000D8
:100020000000000000000000000000005301000874
:1000300055010008000000005701000859010008A0
:100040005B0100085B0100085B0100085B01000820
:100050005B0100085B0100085B0100085B01000810
:100060005B0100085B0100085B0100085B01000800
:100070005B0100085B0100085B0100085B010008F0
:100080005B0100085B0100085B0100085B010008E0
:100090005B0100085B0100085B0100085B010008D0
:1000A0005B0100085B0100085B0100085B010008C0
:1000B000490800086D080008910800085B01000865
:1000C0005B0100085B0100085B0100085B010008A0
:1000D0005B010008B50800085B0100085B0100082F
:1000E0005B0100085B0100085B0100085B01000880
:1000F0005B0100085B0100085B0100085B01000870
:100100005B0100085B0100085B0100085B0100085F
:100110005B0100085B0100085B0100085B0100084F
:100120005B0100085B0100085B0100085B0100083F
:10013000DFF80CD000F02CF900480047290C00082B
:100140005818002005480047FEE7FEE7FEE7FEE7F7
:10015000FEE7FEE7FEE7FEE7FEE7FEE73101000807
:10016000F0B480EA0102D40F4200B2EB410F02D298
:100170000246084611464A0042D0C30DDDB2C1F323
:10018000C752AD1A202D35DAC1F3160141F4000231
:1001900004B15242C5F1200602FA06F12A41104488
:1001A000B3EBD05F23D0C4B1012DA0EBC35009DC69
:1001B000F0BC4FF0004202EAC352DBB200F500008F
:1001C00000F0B8B8400000F1807000EBC350A0F11F
:1001D000807040EAD170490009E0490841EAC071E5
:1001E000A0EBC35000F50000400800EBC350F0BC8A
:1001F00000F097B86142012202EB4101001BF6E7D3
:10020000F0BC704781F00041AAE780F00040A7E70A
:1002100080EA010210B502F00043400022D04A00FB
:100220001FD0010E01EB1261C0F35600C2F356025B
:1002300040F4000042F40002A0FB022000047F39D9
:10024000140400D0401C50EA124001D44000491E62
:10025000C2B20C0604EBD010401C4008802A02D029
:1002600003E0002010BD20F00100002900DA00208A
:10027000184310BD30B480EA010202F0004530F0AE
:10028000004221F0004013D090B1C30DD40DC2F351
:100290001601C0F31600E41A41F4000140F4000214
:1002A0007D34914201D3641C00E04900002C02DA45
:1002B00030BC002070474FF400000023914201D36E
:1002C000891A034340084FEA4101F7D151B19142E5
:1002D00002D14FF0004105E002D24FF0010101E0F0
:1002E0006FF0010103EBC450284430BC00F019B892
:1002F00096230022114600F01DB820F00040C10DE9
:10030000C0F3160040F400007F2901DA0020704796
:10031000962903DCC1F19601C840704796398840A0
:1003200070470029A8BF7047401C490008BF20F053
:100330000100704710B4B0FA80FC00FA0CF050EAEB
:10034000010404BF10BC704749B1CCF1200421FA6C
:1003500004F411FA0CF118BF012121430843A3EB67
:100360000C01CB1D4FEA00614FEA102042BF002074
:1003700010BC704700EBC35010440029A4BF10BC50
:100380007047401C490008BF20F0010010BC7047B6
:10039000064C074D06E0E06840F0010394E80700D2
:1003A00098471034AC42F6D3FFF7C6FE441000085D
:1003B0006410000830B58C1810F8012B12F00F03F0
:1003C00001D110F8013B120906D110F8012B03E00E
:1003D00010F8015B01F8015B5B1EF9D101E001F847
:1003E000013B521EFBD1A142E6D3002030BD2DE9D6
:1003F000F0470446894617462069A9EB0008B8F182
:10040000000F7ED0607F00287BD1C4F814906088F4
:10041000B84201D9678803E06068B84200D26768D3
:100420000A21206AB0FBF1F060626088381A616AC4
:10043000B0FBF1FA002513E0608805FB0A0104F126
:100440002C0040F8251050F82500E168B1FBF0F0D1
:10045000401E81B204F5E27020F81510681C85B2C8
:10046000606AA842E8D804F12C00616A40F8217063
:10047000E068B0FBF7F0401E81B204F5E270626AFA
:1004800020F81210B8F1000F71DD012020772078DC
:10049000012100F009FC6088642190FBF1F02169E2
:1004A0000844C4F85803012512E004F12C0050F868
:1004B00025006421B0FBF1F2681E04F5567151F875
:1004C0002000111804F5567040F82510681C85B2FC
:1004D000606AA842E9D802E0606A401E6062606A11
:1004E000401E04F5567151F820002169401AB8EBFE
:1004F000400FF1DD00254FF6FF71606A01EA40060A
:100500000AE0B4E004F5E27030F8151020F8161097
:10051000681C85B2701E86B2606AA842F2D8606A12
:10052000420004F55670616940F82210A08C012148
:10053000C1EB400085B2002614E004F12C0050F815
:1005400026006421B0FBF1F204F55670691C50F8E6
:100550002100811A04F5567040F82510681E85B2F6
:10056000701C86B2606AA842E7D36FE0FFE7002004
:1005700020772078002100F097FB6088642190FBB1
:10058000F1F02169081AC4F85803012512E004F1BA
:100590002C0050F825006421B0FBF1F2681E04F530
:1005A000567151F82000811A04F5567040F8251054
:1005B000681C85B2606AA842E9D802E0606A401E01
:1005C0006062606A401E04F5567151F8200021698E
:1005D000401AB8EB400FF1DA00254FF6FF71606A60
:1005E00001EA400609E004F5E27030F8151020F841
:1005F0001610681C85B2701E86B2606AA842F2D8D6
:10060000606A420004F55670616940F82210A08CBF
:100610000121C1EB400085B2002614E004F12C005A
:1006200050F826006421B0FBF1F204F55670691C05
:1006300050F82100111804F5567040F82510681E76
:1006400085B2701C86B2606AA842E7D3D4E9041070
:100650004218606A401E04F5567151F82000111AC4
:1006600004F55670626A40F8221001206077BDE8F8
:10067000F08770B504460D4616462069411932468A
:100680002046FFF7B4FE70BD00B500201549086193
:10069000C8601420486100208861C861084600686D
:1006A00040F001000860084640680F4908400D49C5
:1006B0004860084600680D4908400A490860084635
:1006C000006820F4802008600846406820F4FE009E
:1006D00048600020886000214FF0006000F058F86A
:1006E00000BD0000001002400000FFF8FFFFF6FE12
:1006F0002DE9F0410746884614461D46284600F07D
:1007000033F8C5F1040007FA00F60F20284100EA8B
:100710000800064306F00F06E21704EBD2625211FE
:10072000920002F1E022D2F800212146E31704EB07
:10073000D3635B11A4EB431C012303FA0CF31A43AC
:100740002046E31704EBD3635B119B0003F1E02326
:10075000C3F800210348005D40EA0610014908552E
:10076000BDE8F08100E400E00146072323EA01022E
:100770001202054B18684FF6FF031840034B18434D
:100780001043014B186070470CED00E00000FA05C3
:10079000024A0A400243024B1A60704780FFFF1F63
:1007A00008ED00E010B5044602E0142000F058F90E
:1007B000607F0128F9D010BD30B504460025FFF751
:1007C00063FF1F48006840F480301D49086000BF87
:1007D0001B480068400C0028FAD04FF4806018498C
:1007E0004860A01EC4B20846406840EA84404860A1
:1007F0000846406840F4803048601248006840F085
:100800003200104908600E48006840F080700C49C2
:10081000086000BF0A480068400E0028FAD0084867
:10082000406840F002000649486005E0044840681E
:10083000C0F3870505F00305022DF7D130BD000098
:10084000001002400020024010B54FF08040008AA6
:1008500000F0010008B100F09BFA4FF08040008AE0
:1008600020F001004FF08041088210BD10B507480C
:10087000008800F0010008B100F092FA03480088F7
:1008800020F001000149088010BD00001004004064
:1008900010B50748008800F0010008B100F088FAA0
:1008A0000348008820F001000149088010BD0000C5
:1008B000100800401D49098801F0200111B31B49AF
:1008C000091D0988C8B21A49098801F40041C9B94B
:1008D0001749098801F4804161B10A2803D0002139
:1008E000134A118020E01249098841F40041104A5E
:1008F000118019E00D2806D10D49098841F4804185
:100900000B4A118010E00A490988C1F30D01094A18
:10091000505407490988491C054A11801146098825
:10092000C72901DD00211180704700000038014017
:100930008C1300209013002002E008C8121F08C189
:10094000002AFAD170477047002001E001C1121F50
:10095000002AFBD170470000022804D0032815D0DC
:10096000042831D121E041B14FF08042128842F099
:1009700001024FF080431A8007E04FF08042128856
:1009800022F001024FF080431A801DE031B10F4A7E
:10099000128842F001020D4B1A8005E00B4A1288C2
:1009A00022F00102094B1A800EE031B1084A128888
:1009B00042F00102064B1A8005E0054A128822F037
:1009C0000102034B1A8000BF00BF704700040040C3
:1009D000000800400E48806940F004000C4988611E
:1009E0000C4800680C4908400A490860084600683D
:1009F0000A49084307490860081D006820F4704050
:100A0000091D08600846006840F4405008607047BF
:100A10000010024000080140FFFFF0F00000030357
:100A20004FF0E021096921F004014FF0E02211614B
:100A3000C21700EB5272C2F3C702074B1A70194675
:100A4000097801EB4102C2EBC1114FF6FF7202EAD5
:100A5000C101024A118070478013002082130020D8
:100A600001460D4A12884A434FF0E0235A610022A2
:100A70009A6101221A6100BF4FF0E022106900F074
:100A800001021AB100F48032002AF5D000224FF0A2
:100A9000E0231A619A6170478213002010B5044662
:100AA000207F012803D12069401C206102E02069D9
:100AB000401E206104F55670A26A50F82200216998
:100AC000814216D1D4E90910B0EB410F0BD2A06AD4
:100AD000401CA06204F5E272A36A32F81310207879
:100AE00000F010F905E020780021FFF735FF002025
:100AF000607710BD1549096809B9012100E000219E
:100B0000124A083212680AB1012200E0002201EB09
:100B100042010E4A121D12680AB1012200E00022B1
:100B200001EB8201094A0C3212680AB1012200E08D
:100B3000002201EBC20181F0FF0005490978414024
:100B40000140044A117002490870704704012342B1
:100B500085130020841300201448806940F0400071
:100B6000124988611248006812490840104908601B
:100B700008460068104908430D4908600C480C30CD
:100B8000006840F002000A490C310860084600681D
:100B900040F0040008600846006840F00800086063
:100BA0000846006840F010000860704700100240DE
:100BB000001801400F00F0FF808808001748806986
:100BC00040F00800154988611548006820F0F000E1
:100BD000134908600846006840F03000086010487B
:100BE0000830006840F400700D49083108600B4877
:100BF000806940F48070094988610A48406820F0A3
:100C00007040084948600846406840F040504860DD
:100C10000846C06840F40040C860704700100240B9
:100C2000040C01400020014000240920FFF7C4FD0E
:100C30004820FFF7F5FEFFF7C1FFFFF78DFF4FF4E8
:100C4000E131482000F090F900F074F816E0FFF769
:100C500051FF642C01DD002401E0601CC4B2642C4F
:100C600009D10748006808B9012000E000200449C4
:100C7000086000F065F80120FFF7F2FEE7E70000EA
:100C8000A481214210B50446607F01280AD10020CA
:100C9000A062B4F8C411207800F034F82078012163
:100CA000FFF75AFE10BD0000022804D003280CD024
:100CB000042822D115E0012903D10122104B1A602A
:100CC00002E000220E4B1A6017E0012904D1012234
:100CD0000B4B08331A6003E00022094B08331A60FB
:100CE0000BE0012904D10122054B1C331A6003E0FB
:100CF0000022034B1C331A6000BF00BF7047000086
:100D000090012142022804D0032806D004280AD1E9
:100D100006E04FF08042118505E0044A118002E0B0
:100D2000034A118000BF00BF704700002804004044
:100D30002808004010B500F043F8FFF74BFE10BD47
:100D400010B54FF47A724FF4C8710F48FFF791FC59
:100D50000D48FFF797FF0C48FFF724FD4FF4FA709A
:100D6000FFF77EFE4FF47A7208490748FFF781FCCF
:100D70000548FFF787FF0448FFF714FD4FF4FA70AA
:100D8000FFF76EFE10BD00000000002070FEFFFFA8
:100D900010B50248FFF782FE10BD000000000020E1
:100DA00010B50248FFF77AFE10BD00008006002053
:100DB00010B50248FFF772FE10BD0000000D0020C4
:100DC00010B56448C06940F001006249C861084636
:100DD000806940F0040088615F48006820F0F000FE
:100DE0005D4908600846006840F0B0000860C8042B
:100DF000008840F00400C90408800846808940F05B
:100E0000010088810846008B20F440700883084662
:100E1000008B40F4E04008830846008C40F010004E
:100E20000884092088850520088702231C2219468A
:100E30000120FFF75DFC4748C06940F002004549CA
:100E4000C8610846806940F0040088614248006833
:100E500020F07040404908600846006840F030408B
:100E600008603E48008840F004003C4908803B4848
:100E70000C30008840F0010038490C3108803748B8
:100E80001830008820F44070344918310880084632
:100E9000008840F4E040088030482030008840F06E
:100EA00010002E492031088009202C492C3108805F
:100EB00005202A493831088002231D220321012000
:100EC000FFF716FC2348C06940F004002149C861BF
:100ED0000846806940F0080088612148006820F0D9
:100EE00070401F4908600846006840F030400860C4
:100EF0001C48008840F004001A49088019480C304A
:100F0000008840F0010017490C310880154818305E
:100F1000008820F440701349183108800846008882
:100F200040F4E04008800F482030008840F0100076
:100F30000C492031088009200A492C3108800520FD
:100F400008493831088002231E2204210120FFF7BE
:100F5000CFFB10BD0010024000080140000400401B
:100F6000000C0140000800402DE9F05F05460E46E8
:100F70003001FFF7BDF981462E4905FB01F0FFF76F
:100F8000B7F982464946FFF775F907463846FFF735
:100F9000B4F984B22046FFF7ABF983463946FFF730
:100FA00034F982464FF08341FFF732F98146FFF76B
:100FB000A4F980464FF6FF7000EA041404EB080021
:100FC00084B21D48806940F004001B4988610846CE
:100FD000806940F4804088611848006820F47F6090
:100FE000164908600846006840F40B600860124823
:100FF000C06840F480401049C8600846C06820F4CA
:101000008040C8600E480480001D008842F20C0138
:1010100008430B49091D08800846008840F020005D
:1010200008800223252203210846FFF761FBBDE863
:10103000F09F000040420F000010024004080140F1
:1010400008380140641000080000002090130000E0
:10105000B4030008C810000890130020C804000062
:10106000480900085A0200C800A08601000AA3DD52
:101070006D4208420103FF200301FF01FF01FF0150
:10108000FF01FF016B5A0300C800A08601000AA3FC
:10109000DD6D4208420103FF200301FF01FF01FF54
:1010A00001FF01FF016B5A0400C800A08601000A7D
:1010B000A3DD6D4208420103FF2C0101FF01FF0186
:0810C000FF01FF01FF017B00AD
:0400000508000131BD
:00000001FF
